:04000000B3EF0DF05D
:1000080000C01BF001C01AF002C019F003C018F0BC
:1000180004C017F005C016F00BC015F0E1CF22F0B0
:10002800E2CF23F0E9CF20F0EACF21F0F5CF1FF09F
:10003800F8CF1CF0F7CF1DF0F6CF1EF0B1EC0CF0A6
:10004800640ED66EF2941FC0F5FF1CC0F8FF1DC0E9
:10005800F7FF1EC0F6FF1BC000F01AC001F019C060
:1000680002F018C003F017C004F016C005F015C060
:100078000BF020C0E9FF21C0EAFF22C0E1FF23C046
:04008800E2FF110082
:10008C00000E056E040E066E0AC203F0000E046E1E
:10009C000336043603900336043603900BC200F08B
:1000AC00000E016E00360136009000500326015000
:1000BC00042203C001F004C002F0013601900236A4
:1000CC0001360190023601C003F002C004F0043284
:1000DC000332049E04BC048E04320332049E04BC1E
:1000EC00048E03C000F004C001F00036009001360D
:1000FC00003600900136055000260650012200C043
:10010C0005F001C006F000C0E1FF01C0E2FFE69E71
:10011C0002010B51000A12E10AC200F0000E016E3E
:10012C00003600900136970E0024E16E010E01207E
:10013C00E26E05C0E6FF06C0E6FF11D00AC200F071
:10014C00000E016E003600900136B60E0024E16EF2
:10015C00010E0120E26E05C0E6FF06C0E6FF05C0F9
:10016C00E1FF06C0E2FFE69C040E0524E16E000EE2
:08017C000620E26EE68C120081
:0E018400800E02010A11006E00C0D7F11200B9
:100192000AC2D4F10BC2D5F10CC2D8F10DC2D9F109
:1001A200800E02010E11006E008000C0D7F1120015
:1001B2000AC2D4F10BC2D5F10CC2D6F10DC2D8F1EC
:1001C2000EC2D9F1800E02010F11006E00C0D7F1EC
:0201D200120019
:1001D40020C401F01F0E01160150010A01E08DD068
:1001E40004012451000A01E088D02151060A3AE1B1
:1001F4002FD00101DC51010A13E1580E02010A6FEC
:10020400200E0B6F000E0C6F120E0A27000E0B232C
:100214000C23090E0D6F000E0E6F400E0F6FC7DF1B
:1002240021D00101DC51010A0EE1A30E02010A6F83
:10023400200E0B6F000E0C6F210E0D6F000E0E6F53
:10024400400E0F6FB4DF0ED002010A6B99DF0AD0A3
:1002540004012351210ACDE02351220AE2E0235173
:10026400230AF2E020C401F0600E0116050E006EB0
:10027400005004E00132019EFF0FFBD70150010A38
:1002840001E03BD027D039D038D0C70E02010A6F25
:10029400010E0B6F010E0C6F000E0D6F400E0E6FF2
:1002A40076DF2BD002010A6B6BDF23C4C7F125D0A4
:1002B4000201C80E0A6F010E0B6F010E0C6F000EC7
:1002C4000D6F0E6B64DF19D002010A6B59DF22C473
:1002D400C8F113D004012151010AD5E02151090AC2
:1002E400D3E02151020AD1E021510A0ADBE0215175
:0C02F400030ADEE021510B0AE7E01200D3
:10030000700EE16E0F0EE26E02010551E126D8B0CB
:10031000E22A06C2E6FF06A504D005C20AF20B6B6C
:10032000B5DE06A305D005C20AF2010E0B6FAEDEE4
:020330001200B9
:1003320002010651000A12E005C200F0000E016E31
:10034200003600900136B60E0024E96E010E01203F
:10035200EA6EEECF04F0EECF05F011D005C200F048
:10036200000E016E003600900136970E0024E96EF1
:10037200010E0120EA6EEECF04F0EECF05F0020E80
:100382000424E16E000E0520E26E07C2E6FF08C2F9
:10039200E6FF010E0424E16E000E0520E26E09C2A2
:1003A200E6FF04C0E9FF05C0EAFFEECF00F004C09B
:1003B200E1FF05C0E2FF400E0014E66E04C0E9FF53
:1003C20005C0EAFFEECF00F004C0E1FF05C0E2FF86
:1003D200880E0010E66E0651000A1BE005C200F00E
:1003E200000E016E003600900136B60E0024026E39
:1003F200010E0120036E02C0E9FF03C0EAFF040EF2
:10040200EE18006E02C0E1FF03C0E2FF00C0E6FF8B
:100412001AD005C200F0000E016E003600900136BF
:10042200970E0024026E010E0120036E02C0E9FF46
:1004320003C0EAFF040EEE18006E02C0E1FF03C023
:10044200E2FF00C0E6FF04C000F005C001F01200A8
:100452000101A35315E0010E0201056F1E0E066F86
:100462004EDF010E056F066BA1C107F2A2C108F2B1
:10047200400E096F5DDF00C0DAF101C0DBF114D07C
:100482000201010E056F1E0E066F39DF010E056FA8
:10049200066BA1C107F2A2C108F2400E096F48DF44
:0A04A20000C0DAF101C0DBF1120026
:0A04AC000101A35301E090DE1200ED
:1004B600FFC102F000C203F002C200F003C201F065
:1004C600010E0201025F000E035B0050011009E0FD
:1004D60002C0E1FF03C0E2FF01C2E6FF024A032AAF
:0404E600EBD712003E
:1004EA000CD0B2DF4BD04AD0DCDF48D047D046D060
:1004FA0045D044D0000042D041D0000E020100197C
:10050A0003E1010E0101FF19ECE0000E02010019DE
:10051A0003E1020E0101FF19E6E0000E02010019D3
:10052A0003E1030E0101FF19DFE002010051000A95
:10053A0003E1730E0101FF19D9E002010051000A1B
:10054A0003E1750E0101FF19D2E002010051000A10
:10055A0003E1740E0101FF19CBE0020100513F0AC9
:10056A0003E1FF0E0101FF19C4E002010051000A74
:10057A0003E1720E0101FF19BDE0BED7010E006E44
:02058A0012005D
:10058C000B6A0A6A096A00500402F4CF09F0F3CF2F
:10059C0008F001500502F4CF0BF0F3CF0AF0005035
:1005AC000502F3500926F4500A22E86A0B22015086
:1005BC000402F3500926F4500A22E86A0B2208C000
:1005CC0000F009C001F00AC002F00BC003F01200E9
:1005DC00F250026EF29E0500FF6A0150FE6E005052
:0805EC00FD6E02BEF28E12004A
:1005F40004012051800AD8A479D0C00E0101D76F1C
:100604006AD00101C40E006E200E016E000E026E4F
:1006140000C0D4F101C0D5F102C0D6F1120ED86FDA
:10062400000ED96F63D00101030E006E000E016E3F
:1006340022C404F0000E056EA7DFE20E0024E96E6A
:10064400010E0120EA6EEECFD4F1EECFD5F1EECF5C
:10065400D6F1020ED425F66E000ED521F76E000EEB
:10066400D621F86E0900F5CF00F00900F5CF01F0AE
:1006740000C0D8F101C0D9F139D0030E0401225DC4
:1006840024E2030E006E000E016E22C404F0000E7C
:10069400056E7ADFA90E0024E96E010E0120EA6ED0
:1006A400EECFD4F1EECFD5F1EECFD6F1D4C1F6FF33
:1006B400D5C1F7FFD6C1F8FF0900F5CF00F000C09F
:1006C400D8F1000E0101D96F02D00101D76B0ED011
:1006D4000101D76B0BD004012351010A92E023518D
:0E06E400020AA1E02351030AC8E0F2D7120077
:1006F2000101D78F710EFF6F0F0E0201006F016BA8
:10070200010E026F000E036FD5DEE10E0101FF6FD5
:10071200010E0201006F016B010E026F000E036FEA
:10072200C9DE22C4DCF10101DC51000A03E1100E32
:10073200966F10D0200E966F010EFF6F000E020111
:10074200006FDC0E016F010E026F010E036F000ECF
:06075200046FCADE120074
:10075800000E0101D95D02E1080ED85D10E2D8C192
:1007680003F0D9C104F0C451000A03E1010EC46FBB
:1007780005D0C451010A02E1020EC46F04D0080E6C
:10078800036E000E046EB6C1E1FFB7C1E2FFE69248
:10079800B6C1E1FFB7C1E2FFE690B6C1E9FFB7C154
:1007A800EAFFEECF00F0B6C1E1FFB7C1E2FF0450A7
:1007B8000010E66E010EB625E16E000EB721E26E5E
:1007C80003C0E6FF0350D85D006E0450D959016E8E
:1007D80000C0D8F101C0D9F1280EDE6F040EDF6F1A
:1007E800D7B12FD0035004102BE0D4C1F6FFD5C1E8
:1007F800F7FFD6C1F8FF0900F5CF00F0DEC1E1FF31
:10080800DFC1E2FF00C0E6FFDE4BDF2B010ED4257F
:10081800006E000ED521016E000ED621026E00C0BA
:10082800D4F101C0D5F102C0D6F1010E035C006E0F
:10083800000E0458016E00C003F001C004F0D2D7C6
:1008480024D00350041021E0D4C1E9FFD5C1EAFF48
:10085800DEC1E1FFDFC1E2FFEECFE6FFDE4BDF2BBB
:10086800010ED425006E000ED521016E00C0D4F112
:1008780001C0D5F1010E035C006E000E0458016E34
:0C08880000C003F001C004F0DCD7120037
:1008940004012251010A13E120C401F01F0E0116C4
:1008A4000150000A0CE10101D78F04012151030A10
:1008B40004E1010E0101DD6F02D00101DD6B0401D1
:1008C4002251000AD8A48BD020C401F01F0E0116B7
:1008D4000150020AD8A483D024C401F00F0E0116DB
:1008E4000150000AD8B47BD00101D78F040124BF82
:1008F40016D024C403F00F0E031603C000F0000E3C
:10090400016E003600900136970E0024E96E010E48
:100914000120EA6EEECF04F0EECF05F015D024C42A
:1009240003F00F0E031603C000F0000E016E003634
:1009340000900136B60E0024E96E010E0120EA6E25
:10094400EECF04F0EECF05F02151030A07E104C015
:10095400E1FF05C0E2FF840EE66E41D024C400F03E
:100964000F0E0016700E026E0F0E036E005002265C
:10097400D8B0032A02C0E9FF03C0EAFFEECF00F0BB
:10098400EECF01F0009002C0E1FF03C0E2FF00C01F
:10099400E6FF01C0E6FF24AF11D004C0E1FF05C0AB
:1009A400E2FFE66A040E0418006E00C004F004C0FE
:1009B400E1FF05C0E2FF400EE66E11D004C0E1FF86
:1009C40005C0E2FF880EE66E040E0418006E00C037
:1009D40004F004C0E1FF05C0E2FFC80EE66E120099
:1009E4000401286B296B4AD00101D78F04012881A7
:1009F4000101DD51010A02E10401288354D00101FF
:100A0400D78F51D00101D78F040124BF16D024C43D
:100A140003F00F0E031603C000F0000E016E003643
:100A240000900136970E0024E96E010E0120EA6E53
:100A3400EECF04F0EECF05F015D024C403F00F0E72
:100A4400031603C000F0000E016E0036009001365C
:100A5400B60E0024E96E010E0120EA6EEECF04F01A
:100A6400EECF05F004C0E9FF05C0EAFFEECF01F0C8
:100A740001A403D00401010E286F15D020C401F095
:100A84001F0E01160150000AAFE020C401F01F0E32
:100A940001160150010AB3E020C401F01F0E011633
:100AA4000150020AAFE00101D7AF07D0280ED46F7E
:0C0AB400040ED56FD781020ED86F12001F
:0A0AC000530E0D6E0D2EFED712002E
:0C0ACA000000000000000000000012000E
:100AD600240E0C6EB50E0D6E0D2EFED70C2EFCD709
:060AE600000000001200F8
:100AEC00000E0101F61902E1000EF51902E1016A8E
:100AFC0009D0F5C1E9FFF6C1EAFFEECF00F0016ABB
:0A0B0C0000BE012A01C000F0120033
:100B16000101F651000A12E0F5C100F0000E016E67
:100B2600003600900136B60E0024E96E010E012053
:100B3600EA6EEECF04F0EECF05F011D0F5C100F06D
:100B4600000E016E003600900136970E0024E96E05
:100B5600010E0120EA6EEECF04F0EECF05F0020E94
:100B66000424E16E000E0520E26EF7C1E6FFF8C12F
:100B7600E6FF010E0424E16E000E0520E26EF9C1C7
:100B8600E6FF04C0E9FF05C0EAFFEECF00F004C0AF
:100B9600E1FF05C0E2FF400E0014E66E04C0E9FF67
:100BA60005C0EAFFEECF00F004C0E1FF05C0E2FF9A
:100BB600880E0010E66EF651000A1BE0F5C100F043
:100BC600000E016E003600900136B60E0024026E4D
:100BD600010E0120036E02C0E9FF03C0EAFF040E06
:100BE600EE18006E02C0E1FF03C0E2FF00C0E6FFA0
:100BF6001AD0F5C100F0000E016E003600900136E5
:100C0600970E0024026E010E0120036E02C0E9FF5A
:100C160003C0EAFF040EEE18006E02C0E1FF03C037
:100C2600E2FF00C0E6FF04C000F005C001F01200BC
:100C36006D980101D7BF49D0CDAF28D0020EC26F43
:100C4600010EB625E16E000EB721E26EE66AB6C168
:100C5600E1FFB7C1E2FFC80EE66E010EC525E16EE3
:100C6600000EC621E26E080EE66E020EC525E16E86
:100C7600000EC621E26E280EE66E040EE66EC5C1B3
:100C8600E1FFC6C1E2FFC80EE66E1ED0010EC52505
:100C9600E16E000EC621E26E080EE66E020EC52556
:100CA600E16E000EC621E26E200EE66E040EE66EC2
:100CB600C5C1E1FFC6C1E2FF8C0EE66EB6C1E1FF1B
:100CC600B7C1E2FF840EE66E82D0CDBF80D00401AC
:100CD60020AF55D00101D9510401275D04E101017E
:100CE600D8510401265D04E226C4D8F127C4D9F1FF
:100CF60030DD010EC26F010EC525E16E000EC62164
:100D0600E26E080EE66E020EC525E16E000EC621E5
:100D1600E26E200EE66E040EE66EC5C1E1FFC6C1A8
:100D2600E2FF800EE66EC36B010EC925E16E000E72
:100D3600CA21E26E080EE66E020EC925E16E000EAD
:100D4600CA21E26E200EE66E040EE66EC9C1E1FF10
:100D5600CAC1E2FF840EE66E010EC36F020EB6250F
:100D6600E16E000EB721E26E280EE66E040EE66E08
:100D7600B6C1E1FFB7C1E2FFC80EE66E28D0010199
:100D8600020EC26F010EB625E16E000EB721E26EAD
:100D9600E66AB6C1E1FFB7C1E2FFC80EE66E010E14
:100DA600C525E16E000EC621E26E080EE66E020E45
:100DB600C525E16E000EC621E26E280EE66E040E13
:100DC600E66EC5C1E1FFC6C1E2FFC80EE66E1200BF
:100DD60020C401F0600E0116050E006E005004E0FE
:100DE6000132019EFF0FFBD70150000A01E06BD0D4
:100DF60047D00101D78F080E966F65D0FAEC02F046
:100E060062D074DC60D0DC0E0101D46F010ED56FA8
:100E1600D781010ED86FD78F56D0E1DD54D037DD9C
:100E260052D0E10E006E010E016E0401245100261F
:100E3600D8B0012A00C0D4F101C0D5F10101D78193
:100E4600010ED86FD78F3FD00101D78FE10EE16E2B
:100E5600010EE26E04012451E126D8B0E22A22C432
:100E6600E6FF31D0020E0101FF6F000E0201006F96
:100E7600016B026B036B046B75EC02F024D023D07C
:100E860004012151050AB5E02151060AB7E02151B6
:100E9600090AB7E02151080AB6E02151000ABDE06F
:100EA6002151010ABCE02151030AB9E021510A0A85
:100EB600B8E021510B0AC8E02151070AD3E02151BD
:080EC6000C0ADDE0DCD712008C
:100ECE00010E0101C925E96E000ECA21EA6EEECFB0
:100EDE0000F000C0FDF1000ECF5D02E1FD51CE5DD0
:100EEE0003E2CEC1FDF10AD0FD51CE5D006E000EC3
:100EFE00CF59016E00C0CEF101C0CFF1FE6BFD5196
:100F0E00FE5D1CE2280EE96E040EEA6EFE51E92625
:100F1E00D8B0EA2AEECF00F0CBC1E1FFCCC1E2FFA0
:100F2E0000C0E6FF010ECB25006E000ECC21016E37
:100F3E0000C0CBF101C0CCF1FE2BE1D7000E006E4C
:100F4E00CF51005C02E1CE51000828E2010EC5250A
:100F5E00E16E000EC621E26E080EE66E020EC5258B
:100F6E00E16E000EC621E26E280EE66E040EE66EEF
:100F7E00C9C1E9FFCAC1EAFFEECF00F000BC07D03D
:100F8E00C5C1E1FFC6C1E2FFC80EE66E06D0C5C1FF
:100F9E00E1FFC6C1E2FF880EE66E2DD0010EC5251B
:100FAE00E16E000EC621E26E080EE66E020EC5253B
:100FBE00E16E000EC621E26E200EE66E040EE66EA7
:100FCE00C5C1E1FFC6C1E2FF840EE66E000E006EE3
:100FDE00D31908E10050D21905E10050D11902E1F0
:100FEE00D051000A06E0D0C100F0D1C101F0EEEC04
:080FFE0002F00101CD9F120079
:101006000101C26BB6C1E1FFB7C1E2FFE66A040E99
:10101600B619E16EB7C1E2FF000EE21AE66ACDAF7D
:1010260015D0000E006ED31908E10050D21905E163
:101036000050D11902E1D051000A06E0D0C100F0FB
:0E104600D1C101F0EEEC02F00101CD9F1200CD
:0A105400D08EA28AA08AF28E12004C
:10105E00F0C102F0F1C103F0F3C100F0F4C101F0F0
:10106E00010E0101F35F000EF45B0050011009E068
:10107E0002C0E1FF03C0E2FFF2C1E6FF024A032A0B
:04108E00EBD712008A
:101092000101C251020A02E119DF1ED0B3DFC351BE
:1010A200000A19E1010EC525E16E000EC621E26EAD
:1010B200080EE66E020EC525E16E000EC621E26E36
:1010C200200EE66E040EE66EC5C1E1FFC6C1E2FF68
:0A10D2008C0EE66E01D0C36B120015
:1010DC00B6C1E9FFB7C1EAFFEECF00F000AE05D014
:1010EC00B6C1E1FFB7C1E2FFE66A0101C46BC26B96
:1010FC00D86BD96BD76B69DE030E0101FF6F000E45
:10110C000201006F016B026B036B046B75EC02F058
:04111C008CDD120054
:10112000B6C1E9FFB7C1EAFFEECF00F0000E00BC88
:10113000010E0101FC6F040EB619006E00C0B6F17D
:101140009651080A0AE122C46EFF6E50000803E2BD
:10115000100E966F02D0040E966FC251010A2BE159
:10116000020EB625E16E000EB721E26E280E006E6B
:10117000040E016E00C0E6FF01C0E6FFACEC03F018
:10118000C451020A07E1B6C1E1FFB7C1E2FF840E14
:10119000E66E10D0FC51000A07E1B6C1E1FFB7C10D
:1011A000E2FFC80EE66E06D0B6C1E1FFB7C1E2FFAE
:0A11B000880EE66E01D027DF120062
:0E11BA00ACB202D00000FCD7F0C1ADFF1200B5
:1011C800580E0101E26F200EE36F000EE46FE80E87
:1011D800A96F200EAA6F000EAB6F810EAC6F200EA8
:1011E800AD6F000EAE6FD60EAF6F200EB06F000E53
:0411F800B16F1200C1
:1011FC00200E0101965D03E36DB201D002D0006AAE
:10120C0033D094C1F5F195C1F6F16ADC00522BE1B3
:10121C00F3C1F5F1010EF66FF0C1F7F1F1C1F8F180
:10122C00F2C1F9F172DC00C094F101C095F19B6B35
:10123C009C6B9D6B9E6B94C1F5F195C1F6F150DCE6
:10124C00005208E09B519C119D119E1102E0006A16
:10125C000BD0F1D7010E9425E96E000E9521EA6EA4
:0A126C00EECF00F001D0006A12007E
:0E127600160E6F6E9F0E6B6E7B0E696E120071
:101284000101F0BF02D0839E01D0838EF0BD02D055
:10129400839C01D0838CF0BB02D0839A01D0838AD3
:1012A400F0B902D0839801D08388A8B102D082809B
:1012B40001D08290828407DC8294F0B702D0839EAE
:1012C40001D0838EF0B502D0839C01D0838CF0B31F
:1012D40002D0839A01D0838AF0B102D0839801D0DE
:1012E4008388A8B102D0828001D08290828465EC88
:1012F40005F08294A8A103D06BEC05F002D060EC59
:0413040005F01200DE
:1013080001019651000A0AE16D6A696AB0DF9EDE42
:0E1318006DB602D06D86FCD7010E966F1200E6
:0E1326000101A891EBC1F0F1AADFA88112002D
:0A1334006D6A696A0101966B1200F0
:10133E00EBC1F0F1ECC1F1F1EDC1F2F1010E0101E1
:06134E00F36F55DF1200F1
:1013540039DFDA6BDB6B946B956B6A6A686A89DFD9
:101364006D8C6E6A710EF06F0F0EF16FF26B010EE1
:10137400F36F000EF46F71DE6D9CEB6B080EEB5D8A
:1013840016E2EBC100F0000E016E0036009001364B
:10139400003600900136000E0024E16E040E012098
:1013A400E26EE66AE66AE66AE66AEB2BE7D7160EB1
:1013B400706E68A603D0F70E6816FBD7D76BCD6B9B
:1013C400CE6BCF6B6D98080EB66F040EB76FDC6BE7
:0413D400966B120002
:1013D800200E0101965D03E36DB201D002D0006AD0
:1013E80025D0DAC1F5F1DBC1F6F176EC05F0005253
:1013F8001CE1010EDA25E96E000EDB21EA6EEECF64
:1014080000F000C0EFF1EEC1F5F1F66BEBC1F7F1BA
:10141800ECC1F8F1EDC1F9F18BEC05F000C0DAF19F
:0E14280001C0DBF1EFC100F001D0006A12003C
:10143600EBC102F0ECC103F0EEC100F0EFC101F028
:10144600010E0101EE5F000EEF5B0050011009E096
:1014560002C0E1FF03C0E2FFEDC1E6FF024A032A34
:0C146600EBD7EBC100F0ECC101F012006C
:101472000101EE6BEBC1E9FFECC1EAFFEECFEDF14A
:10148200ED51000A0EE0EDC1F0F196DE0101EE2B06
:10149200EE51EB25E96E000EEC21EA6EEECFEDF196
:0414A200EFD712006E
:1014A60090DEDA6BDB6B946B956B6A6A686AE0DEDA
:1014B6006D8C6E6A710EFF6F0F0E0201006F016B6D
:1014C600010E026F000E036F5BEC02F06D9C0101D2
:1014D600FB6B080EFB5D16E2FBC100F0000E016E11
:1014E600003600900136003600900136000E0024CA
:1014F600E16E040E0120E26EE66AE66AE66AE66AD4
:10150600FB2BE7D7160E706E68A603D0F70E68168B
:10151600FBD7D76BCD6BCE6BCF6B6D98080EB66FC6
:0A152600040EB76FDC6B966B120029
:10153000740E0101FF6F000E0201006F016B026B60
:10154000036B046B75EC02F06D92699468A403D090
:08155000FB0E6816FBD7120028
:04155800A19A120042
:10155C00FD0E0101E015016E026AFF0E0216000E6F
:10156C00021802E1000E01186BE17E0EE015016E0F
:10157C0001C003F00332039E03C000F0000E016EA5
:10158C00003600900136003600900136000E002423
:10159C00026E040E0120036E02C0C9F103C0CAF131
:1015AC0002C0C5F103C0C6F1040EC519006E00C01F
:1015BC00C5F102C0E9FF03C0EAFFEECF00F000C0A6
:1015CC0001F03C0E01160132019E0132019E0150C8
:1015DC000D0A34E1020EC925E96E000ECA21EA6E2D
:1015EC00EECF01F0EECF02F00250040A02E1280E19
:1015FC00011822E1020EC925E16E000ECA21E26E2D
:10160C00200EE66E040EE66EFB6B080EFB5D14E21C
:10161C00200EE16E040EE26EFB51E126D8B0E22AF8
:10162C00280EE96E040EEA6EFB51E926D8B0EA2AC0
:10163C00EECFE6FFFB2BE9D74BDD01D024DD0DD03F
:10164C00FD0EE015016E026AFF0E0216000E021866
:0C165C0002E1040E011801E15DDD120046
:1016680070A019D0C9C1E9FFCAC1EAFFEECF01F0E5
:101678000150800A0FE1B6C1E9FFB7C1EAFFEECF1A
:1016880001F00150840A06E1C9C1E1FFCAC1E2FFC5
:0C1698008C0EE66E7090DF0E68161200DB
:1016A4006984EF0E68166D82750E0101FF6F000EDE
:1016B4000201006F016B026B036B046B75EC02F0AB
:0216C400120012
:1016C6000900F5CFE6FF0006FBE10106F9E112008D
:1016D600BA0E0101A46F110EA56FF00EA66F010ED2
:1016E600A76FFF0EB26FFF0EB36F000EB46F000E42
:1016F600B56FFF0EBE6FFF0EBF6F000EC06F000E00
:10170600C16FFF0EBA6FFF0EBB6F000EBC6F000EEF
:10171600BD6FAC8A900EAB6E948E949C9EAA03D03D
:08172600AECF00F0FBD712006A
:04172E0002DE1200C5
:1017320010D0800E0101E66F1AD0C00EE66F17D0EE
:10174200940EE66F14D0D40EE66F11D0800EE66FC1
:101752000ED00101E651010AECE0E651020AEDE089
:10176200E651030AEDE0E651040AEDE0EFD7E705A2
:10177200006EE651002600C0E6F100C0F0F181DD06
:10178200A891EA6BEA51E825E96E000EE921EA6EBA
:10179200EE520BE0EA51E825E96E000EE921EA6E0D
:0E17A200EECFEBF1BFDDEA2BEDD7A8811200F0
:1017B000E6C1EBF1E7C1ECF15CDE0A0EF06FFDDC97
:0A17C0000D0E0101F06FF9DC1200BC
:1017CA00949494909598959A959C959E82948290DB
:1017DA00839E839C839A83986BEC05F06BEC05F0EF
:1017EA006BEC05F0838A8388828465EC05F0829429
:1017FA006BEC05F0828465EC05F082946BEC05F0E5
:10180A00828465EC05F082946BEC05F083988284FF
:10181A0065EC05F082946BEC05F0828465EC05F0CA
:10182A008294839A838E828465EC05F082946BECB1
:10183A0005F0839E8388828465EC05F08294839800
:10184A00828465EC05F082946BEC05F0828465EC89
:10185A0005F082948388828465EC05F082946BECAF
:10186A0005F08398828465EC05F08294838E838CDC
:10187A00838A8388828465EC05F082946BEC05F098
:06188A000101A88112001B
:10189000E6C104F0E7C105F004C002F005C003F0A2
:1018A000044A052AE8C100F0E9C101F00101E84B52
:1018B000E92B00C0E9FF01C0EAFF02C0E1FF03C05D
:1018C000E2FFEECFE6FF02C0E9FF03C0EAFFEE52FF
:0E18D00001E0E2D7E6C100F0E7C101F012002E
:1018DE00EAC100F00101EA0700522EE0E6C1E9FF7D
:1018EE00E7C1EAFFEE50000A0EE0E8C1E9FFE9C1E8
:1018FE00EAFFEECF01F0E6C1E9FFE7C1EAFFEE50E5
:10190E00011801E113D0E6C1E9FFE7C1EAFFEECF0E
:10191E0001F0E8C1E9FFE9C1EAFFEECF00F00050A7
:10192E00015C006E016A000E015A08D00101E64BFF
:0E193E00E72BE84BE92BCCD7006A016A1200B8
:10194C00A1C1EBF1A2C1ECF1400E0101ED6F010E52
:06195C00EE6F3CDD1200FD
:1019620001019651010A07E16DBA05D0686A6980E2
:101972006988020E966F68A405D069A403D0FB0E95
:101982006816D5DD6DA202D0E6DD7AD068A018D047
:1019920069A016D087DD040E966F200E0401026F37
:1019A200040E036F080E016F000E0015006E00C0DA
:1019B20000F48C0E0011006E00C000F4FE0E6816DA
:1019C20068A805D069A803D06CDEEF0E681668AC73
:1019D20012D069AC10D0730E0101FF6F000E02012C
:1019E200006F016B026B010E036F000E046F75EC4A
:1019F20002F0BF0E681668AA03D069AA01D033DECE
:101A020068A211D069A20FD0FF0E0101FF6F3F0E35
:101A12000201006F016B026B010E036F000E046F77
:101A220075EC02F06A6A040E0101965D02E293DD32
:101A320027D069A624D0FA6B040EFA5D20E268A6CC
:101A42001AD06CCFE0F1F70E6816780EE015016E31
:101A52000150000A02E181DD0DD0720EFF6F000E0F
:101A62000201006FE00E016F010E026F036B046B47
:101A720075EC02F001D003D00101FA2BDDD76BDD4A
:021A8200120050
:101A8400E6C104F0E7C105F004C0E9FF05C0EAFFC0
:101A9400EE5203E0044A052AF7D704C002F005C059
:101AA40003F0044A052AE8C100F0E9C101F001018C
:101AB400E84BE92B00C0E9FF01C0EAFF02C0E1FFE7
:101AC40003C0E2FFEECFE6FF02C0E9FF03C0EAFF76
:101AD400EE5201E0E2D7E6C100F0E7C101F01200E6
:101AE400100E0101EB6F050EEC6FED6B400EEE6F07
:101AF400000EEF6F9EDC100EEB6F050EEC6F400EC8
:0C1B0400ED6F1BDC005201E1F6D712006F
:101B1000010E0101A36FE6C1A1F1E7C1A2F1E8C185
:101B20009FF1E9C1A0F116DC010E016E0150010A1E
:081B300002E184EC09F012004F
:101B38000101E86BE96BE851E625E96EE951E72117
:101B4800EA6EEE50000A0AE0E851E625E16EE95136
:0E1B5800E721E26EE66AE84BE92BEDD71200BA
:101B660076EC10F0810EAF6EAC84B2DD030E0B6E18
:101B76008A0E0C6E550E0D6E0D2EFED70C2EFCD752
:101B86000B2EFAD7000000008C0E0101E66F000E46
:101B9600E76F0BDE0F0EC112070EB412926A936A3C
:101BA600800E946E81900EDE030E0B6E8A0E0C6E06
:101BB600550E0D6E0D2EFED70C2EFCD70B2EFAD71A
:101BC60000000000010EF06F42EC09F0030E0B6EF0
:101BD6008A0E0C6E550E0D6E0D2EFED70C2EFCD7F2
:101BE6000B2EFAD7000000000C0EF06F42EC09F045
:101BF600030E0B6E8A0E0C6E550E0D6E0D2EFED755
:101C06000C2EFCD70B2EFAD700000000010EE66F53
:101C1600030EE76F810EE86F000EE96F87DD030E96
:101C26000B6E8A0E0C6E550E0D6E0D2EFED70C2EFB
:101C3600FCD70B2EFAD700000000020EE66F030E4B
:101C4600E76F9D0EE86F000EE96F70DD330E0B6EC9
:101C5600BB0E0C6EDF0E0D6E0D2EFED70C2EFCD7B6
:101C66000B2EFAD700000000F26AF50EF16EC00ED8
:101C7600F06ED09E9D6AA06A9E6AA16A470ED56ED6
:101C8600640ED66EF28AD58EE00EF26E80A029D052
:101C9600D70EE66F000EE76F88DD000E0101E66FD6
:101CA600050EE76F100EE86F050EE96F2EDFAD0E1D
:101CB600E66F000EE76F79DD330E0B6EBB0E0C6E12
:101CC600DF0E0D6E0D2EFED70C2EFCD70B2EFAD77F
:101CD60000000000AA0E0101E66F000EE76F65DD49
:101CE600818031DE0050000A01E1FBD7000EE66F6D
:101CF600050EE76F360EE86F000EE96F010EEA6F0C
:101D0600EBDD000E011802E1000E001823E1010EC2
:101D16000101F06F42EC09F0010EE66F020EE76F6B
:101D2600270EE86F000EE96F01DD020EE66F080E62
:101D3600E76F240EE86F000EE96FF8DC380EE66FE9
:101D4600000EE76F32DD660E0101E66F000EE76FEB
:101D56002CDD1DD0010E0101F06F42EC09F0010EE1
:101D6600E66F020EE76F570EE86F000EE96FDEDCD6
:101D7600020EE66F050EE76F500EE86F000EE96F74
:101D8600D5DC780EE66F010EE76F0FDDAAD71A0EC7
:101D96000B6E5E0E0C6E6E0E0D6E0D2EFED70C2E9D
:101DA600FCD70B2EFAD70000010E0101F06F42ECB2
:101DB60009F0010EE66F010EE76F690EE86F010E7E
:101DC600E96FB4DCE56B0101000EE66F050EE76F07
:101DD600B0DEB9DD0050000A0FE1E551000A0BE163
:101DE600020EE66F010EE76F610EE86F010EE96FF6
:101DF6009DDC010EE56FEDD7010EF06F42EC09F0A8
:101E0600010EE66F010EE76F170EE86F010EE96F20
:101E16008DDC020EE66F010EE76F000EE86F050E11
:101E2600E96F84DC100EE66F050EE76F080EE86FAB
:101E3600010EE96F2ADD100EE66F050EE76F000E44
:101E4600E86F050EE96F1BDE100EEB6F050EEC6FEB
:101E5600400EED6F9FEC09F0005201E1F5D7100E30
:101E6600E66F050EE76FA1DC3ADE000EE66F050EA3
:101E7600E76F000EE86F010EE96F010EEA6F2CDDC9
:101E8600000E011802E1000E001806E1010E010124
:101E9600F06F42EC09F001D096D70101260EE66FED
:101EA600010EE76F82DC1A0E0B6E5E0E0C6E6E0E66
:101EB6000D6E0D2EFED70C2EFCD70B2EFAD700007A
:101EC60033DC010EE66F010EE76F550EE86F010E6B
:101ED600E96F2CDC520EE66F010EE76F66DC81902F
:021EE600FFD724
:1020EC0010EE24F0700E006E020E016EE80EF66E0D
:0E20FC001E0EF76E000EF86E63EC0BF0120075
:031EE8004F4B005D
:0F1EEB0041757468656E7469636174696F6E0028
:021EFA00530093
:101EFC005553422041757468656E746963617469E9
:081F0C006F6E202D204F4B00E9
:071F14004661696C732100B6
:0F1F1B0041757468656E7469636174696F6E00F7
:101F2A0055534220656E756D61726174696F6E20DA
:0B1F3A0062792050432F484F535400A1
:0B1F4500504943313846343535300038
:101F500055534220546573742050726F6772616DDF
:011F60000080
:0D1F6100555342204578616D706C6521007C
:031F6E004F4B00D6
:101F710055534220636F6E6E65637465642C2077E0
:101F8100616974696E6720666F7220656E756D6533
:0A1F9100726174696F6E2E2E2E002F
:101F9B004461746120697320526561647920746FA8
:101FAB002062652052656365697665642066726F91
:091FBB006D20746865205043009C
:081FC40044697361626C650061
:0F1FCC00526563656976656420446174612D0018
:0F1FDB00526563656976656420446174612D0009
:101FEA0055534220646973636F6E6E6563746564EA
:101FFA002C2077616974696E6720666F7220636F3F
:0C200A006E6E656374696F6E2E2E2E00E2
:032016004F4B002D
:0C2019004849442044495341424C4500D2
:082025004E6F2044617461005C
:0F202D00526563656976656420446174612D00B6
:10203C005553422041757468656E746963617469A7
:0C204C006F6E202D204661696C7321002E
:10205800090229000101008032090400000203007E
:102068000000092101010001222100070581034028
:092078000001070501034000010D
:1020810022034D0069006B0072006F0065006C0057
:1020910065006B00740072006F006E0069006B00D8
:0220A1006100DC
:1020A3000600FF0901A10119012940150026FF00BF
:1020B30075089540810219012940750895409102E0
:0120C300C05C
:1020C40012010002000000083412010001000102A4
:0220D400000109
:1020D60012035500530042005F0054006500730070
:0220E600740084
:0420E80004030904E0
:020000040030CA
:0E000000240E191EFF8381FF0FC00FE00F407A
:00000001FF
